:100000000C942A000C94FA000C943C000C943C00D4
:100010000C943C000C943C000C943C000C943C0070
:100020000C943C000C943C000C943C000C943C0060
:100030000C943C000C943C000C943C000C943C0050
:100040000C943C000C943C000C943C000C943C0040
:100050000C943C0011241FBECFE5D4E0DEBFCDBF21
:1000600020E0A0E6B0E001C01D92A136B207E1F7A2
:100070000E94CD010C94CF010C94000087B38061E5
:1000800087BB88B38F7E88BB88B3806188BB0895A7
:1000900087B3806187BB88B38F7E88BB88B38F7E30
:1000A00088BB08950E943E002FE58AEE90E0215023
:1000B00080409040E1F700C000000E944800089591
:1000C00087B3806887BB88B38F7788BB88B3806825
:1000D00088BB089587B3806887BB88B38F7788BB58
:1000E00088B38F7788BB089587B3806487BB88B354
:1000F0008F7B88BB88B3806488BB089587B3806496
:1001000087BB88B38E7F88BB88B38F7B88BB0895FD
:10011000CF9384B3816084BB84B3826084BB84B397
:10012000846084BB84B3886084BB8AB381608ABBEB
:100130008AB382608ABB8AB384608ABB8AB38860D0
:100140008ABB82E085BB85E08BBB0DC092E09BBB88
:1001500081508BBB2FEC38E792E02150304090402B
:10016000E1F700C000008111F1CF81E085BB8AE09A
:100170000DC091E095BB81508BBB2FEC38E792E02E
:10018000215030409040E1F700C000008111F1CFD4
:10019000CAE014C015BAC150CBBB2FEC38E782E0DF
:1001A000215030408040E1F700C00000C53030F4FD
:1001B0000E9474000E946A000E945200C111EACF9E
:1001C00015BA1BBA0E947E00CF91089587B3806252
:1001D00087BB88B38F7D88BB88B3806288BB089556
:1001E00087B3806287BB88B38E7F88BB88B38F7DDF
:1001F00088BB08951F920F920FB60F9211248F9310
:1002000081E0809360008F910F900FBE0F901F9040
:1002100018958FB78F778FBF8FB780688FBF81B3E7
:100220008B7F81BB82B3846082BB8BB780648BBFC2
:1002300085B7806485BF85B7806885BF0895CF93F3
:10024000C4E014C015BAC150CBBBC53030F40E9415
:10025000F0000E9474000E9452002FEC88E792E0A8
:10026000215080409040E1F700C00000C111EACF6A
:100270000E947E000E946000CF91089580916000EE
:10028000813061F40E94F0000E941F010E94600012
:100290000E9488000E94E600109260000895CF93AB
:1002A000DF9300D0CDB7DEB789E089839AE09A83E7
:1002B00094B3916094BB94B3926094BB94B39460F4
:1002C00094BB94B3986094BB9AB391609ABB9AB371
:1002D00092609ABB9AB394609ABB9AB398609ABBA7
:1002E00085BB8BBB1AC08A8181508A838A818BBB74
:1002F0000E943E012FEC88E792E021508040904020
:10030000E1F700C000008BB3811107C08AE08A8347
:10031000898181508983898185BB8981882319F0EE
:100320008A818111E0CF8AE08A831AC015BA8A8156
:1003300081508A838A818BBB0E943E018A818530ED
:1003400030F40E94F0000E9474000E9452002FECD2
:1003500088E792E0215080409040E1F700C0000023
:100360008A818111E3CF0E947E000E9460000F907D
:100370000F90DF91CF9108950E94090110926000C3
:100380000E94E6000E944F010E94F0000E9460005F
:100390000E9488000E946A00F3CF0E94BC01F8947A
:0203A000FFCF8D
:00000001FF
